{
  "contractName": "Auth",
  "abi": [
    {
      "anonymous": false,
      "inputs": [
        {
          "indexed": true,
          "internalType": "address",
          "name": "userAddress",
          "type": "address"
        }
      ],
      "name": "UserLoggedIn",
      "type": "event"
    },
    {
      "anonymous": false,
      "inputs": [
        {
          "indexed": true,
          "internalType": "address",
          "name": "userAddress",
          "type": "address"
        },
        {
          "indexed": false,
          "internalType": "string",
          "name": "email",
          "type": "string"
        }
      ],
      "name": "UserRegistered",
      "type": "event"
    },
    {
      "inputs": [
        {
          "internalType": "string",
          "name": "",
          "type": "string"
        }
      ],
      "name": "emailToAddress",
      "outputs": [
        {
          "internalType": "address",
          "name": "",
          "type": "address"
        }
      ],
      "stateMutability": "view",
      "type": "function",
      "constant": true
    },
    {
      "inputs": [
        {
          "internalType": "address",
          "name": "",
          "type": "address"
        }
      ],
      "name": "users",
      "outputs": [
        {
          "internalType": "string",
          "name": "email",
          "type": "string"
        },
        {
          "internalType": "string",
          "name": "phone",
          "type": "string"
        },
        {
          "internalType": "string",
          "name": "emergencyContact",
          "type": "string"
        },
        {
          "internalType": "string",
          "name": "emergencyEmail",
          "type": "string"
        },
        {
          "internalType": "bool",
          "name": "isDriver",
          "type": "bool"
        },
        {
          "internalType": "bool",
          "name": "exists",
          "type": "bool"
        }
      ],
      "stateMutability": "view",
      "type": "function",
      "constant": true
    },
    {
      "inputs": [
        {
          "internalType": "string",
          "name": "_email",
          "type": "string"
        },
        {
          "internalType": "string",
          "name": "_phone",
          "type": "string"
        },
        {
          "internalType": "string",
          "name": "_emergencyContact",
          "type": "string"
        },
        {
          "internalType": "string",
          "name": "_emergencyEmail",
          "type": "string"
        },
        {
          "internalType": "bool",
          "name": "_isDriver",
          "type": "bool"
        }
      ],
      "name": "register",
      "outputs": [],
      "stateMutability": "nonpayable",
      "type": "function"
    },
    {
      "inputs": [],
      "name": "login",
      "outputs": [
        {
          "internalType": "bool",
          "name": "",
          "type": "bool"
        }
      ],
      "stateMutability": "view",
      "type": "function",
      "constant": true
    },
    {
      "inputs": [
        {
          "internalType": "address",
          "name": "_userAddress",
          "type": "address"
        }
      ],
      "name": "getUser",
      "outputs": [
        {
          "components": [
            {
              "internalType": "string",
              "name": "email",
              "type": "string"
            },
            {
              "internalType": "string",
              "name": "phone",
              "type": "string"
            },
            {
              "internalType": "string",
              "name": "emergencyContact",
              "type": "string"
            },
            {
              "internalType": "string",
              "name": "emergencyEmail",
              "type": "string"
            },
            {
              "internalType": "bool",
              "name": "isDriver",
              "type": "bool"
            },
            {
              "internalType": "bool",
              "name": "exists",
              "type": "bool"
            }
          ],
          "internalType": "struct Auth.User",
          "name": "",
          "type": "tuple"
        }
      ],
      "stateMutability": "view",
      "type": "function",
      "constant": true
    }
  ],
  "bytecode": "0x608060405234801561001057600080fd5b50610db7806100206000396000f3fe608060405234801561001057600080fd5b50600436106100575760003560e01c806341b0b5f21461005c5780636f77926b14610071578063a87430ba1461009a578063b34e97e8146100bf578063ea78dcbf146100d4575b600080fd5b61006f61006a366004610a32565b6100f4565b005b61008461007f3660046109c9565b6102df565b6040516100919190610c66565b60405180910390f35b6100ad6100a83660046109c9565b6105b8565b60405161009196959493929190610b6d565b6100c7610812565b6040516100919190610b4f565b6100e76100e23660046109f7565b61084f565b6040516100919190610b3b565b33600090815260208190526040902060040154610100900460ff16156101355760405162461bcd60e51b815260040161012c90610bd5565b60405180910390fd5b60006001600160a01b03166001866040516101509190610b1f565b908152604051908190036020019020546001600160a01b0316146101865760405162461bcd60e51b815260040161012c90610c2f565b6040805160c0810182528681526020808201879052818301869052606082018590528315156080830152600160a08301523360009081528082529290922081518051929391926101d99284920190610875565b5060208281015180516101f29260018501920190610875565b506040820151805161020e916002840191602090910190610875565b506060820151805161022a916003840191602090910190610875565b5060808201516004909101805460a09093015115156101000261ff001992151560ff1990941693909317919091169190911790556040513390600190610271908890610b1f565b90815260405190819003602001812080546001600160a01b03939093166001600160a01b03199093169290921790915533907f48cac28ad4dc618e15f4c2dd5e97751182f166de97b25618318b2112aa951a2f906102d0908890610b5a565b60405180910390a25050505050565b6102e76108f9565b6001600160a01b038216600090815260208190526040902060040154610100900460ff166103275760405162461bcd60e51b815260040161012c90610c02565b6001600160a01b03821660009081526020819052604090819020815160c0810190925280548290829061035990610d30565b80601f016020809104026020016040519081016040528092919081815260200182805461038590610d30565b80156103d25780601f106103a7576101008083540402835291602001916103d2565b820191906000526020600020905b8154815290600101906020018083116103b557829003601f168201915b505050505081526020016001820180546103eb90610d30565b80601f016020809104026020016040519081016040528092919081815260200182805461041790610d30565b80156104645780601f1061043957610100808354040283529160200191610464565b820191906000526020600020905b81548152906001019060200180831161044757829003601f168201915b5050505050815260200160028201805461047d90610d30565b80601f01602080910402602001604051908101604052809291908181526020018280546104a990610d30565b80156104f65780601f106104cb576101008083540402835291602001916104f6565b820191906000526020600020905b8154815290600101906020018083116104d957829003601f168201915b5050505050815260200160038201805461050f90610d30565b80601f016020809104026020016040519081016040528092919081815260200182805461053b90610d30565b80156105885780601f1061055d57610100808354040283529160200191610588565b820191906000526020600020905b81548152906001019060200180831161056b57829003601f168201915b50505091835250506004919091015460ff8082161515602084015261010090910416151560409091015292915050565b6000602081905290815260409020805481906105d390610d30565b80601f01602080910402602001604051908101604052809291908181526020018280546105ff90610d30565b801561064c5780601f106106215761010080835404028352916020019161064c565b820191906000526020600020905b81548152906001019060200180831161062f57829003601f168201915b50505050509080600101805461066190610d30565b80601f016020809104026020016040519081016040528092919081815260200182805461068d90610d30565b80156106da5780601f106106af576101008083540402835291602001916106da565b820191906000526020600020905b8154815290600101906020018083116106bd57829003601f168201915b5050505050908060020180546106ef90610d30565b80601f016020809104026020016040519081016040528092919081815260200182805461071b90610d30565b80156107685780601f1061073d57610100808354040283529160200191610768565b820191906000526020600020905b81548152906001019060200180831161074b57829003601f168201915b50505050509080600301805461077d90610d30565b80601f01602080910402602001604051908101604052809291908181526020018280546107a990610d30565b80156107f65780601f106107cb576101008083540402835291602001916107f6565b820191906000526020600020905b8154815290600101906020018083116107d957829003601f168201915b5050506004909301549192505060ff8082169161010090041686565b33600090815260208190526040812060040154610100900460ff166108495760405162461bcd60e51b815260040161012c90610c02565b50600190565b80516020818301810180516001825292820191909301209152546001600160a01b031681565b82805461088190610d30565b90600052602060002090601f0160209004810192826108a357600085556108e9565b82601f106108bc57805160ff19168380011785556108e9565b828001600101855582156108e9579182015b828111156108e95782518255916020019190600101906108ce565b506108f5929150610933565b5090565b6040518060c00160405280606081526020016060815260200160608152602001606081526020016000151581526020016000151581525090565b5b808211156108f55760008155600101610934565b600082601f830112610958578081fd5b813567ffffffffffffffff8082111561097357610973610d6b565b604051601f8301601f19168101602001828111828210171561099757610997610d6b565b6040528281528483016020018610156109ae578384fd5b82602086016020830137918201602001929092529392505050565b6000602082840312156109da578081fd5b81356001600160a01b03811681146109f0578182fd5b9392505050565b600060208284031215610a08578081fd5b813567ffffffffffffffff811115610a1e578182fd5b610a2a84828501610948565b949350505050565b600080600080600060a08688031215610a49578081fd5b853567ffffffffffffffff80821115610a60578283fd5b610a6c89838a01610948565b96506020880135915080821115610a81578283fd5b610a8d89838a01610948565b95506040880135915080821115610aa2578283fd5b610aae89838a01610948565b94506060880135915080821115610ac3578283fd5b50610ad088828901610948565b92505060808601358015158114610ae5578182fd5b809150509295509295909350565b60008151808452610b0b816020860160208601610d00565b601f01601f19169290920160200192915050565b60008251610b31818460208701610d00565b9190910192915050565b6001600160a01b0391909116815260200190565b901515815260200190565b6000602082526109f06020830184610af3565b600060c08252610b8060c0830189610af3565b8281036020840152610b928189610af3565b90508281036040840152610ba68188610af3565b90508281036060840152610bba8187610af3565b9415156080840152505090151560a090910152949350505050565b6020808252601390820152725573657220616c72656164792065786973747360681b604082015260600190565b602080825260139082015272155cd95c88191bd95cc81b9bdd08195e1a5cdd606a1b604082015260600190565b60208082526018908201527f456d61696c20616c726561647920726567697374657265640000000000000000604082015260600190565b600060208252825160c06020840152610c8260e0840182610af3565b90506020840151601f1980858403016040860152610ca08383610af3565b92506040860151915080858403016060860152610cbd8383610af3565b9250606086015191508085840301608086015250610cdb8282610af3565b9150506080840151151560a084015260a0840151151560c08401528091505092915050565b60005b83811015610d1b578181015183820152602001610d03565b83811115610d2a576000848401525b50505050565b600281046001821680610d4457607f821691505b60208210811415610d6557634e487b7160e01b600052602260045260246000fd5b50919050565b634e487b7160e01b600052604160045260246000fdfea26469706673582212203587b61ac04d7100eb6ab0011eba86c4ddaf9d6c09cfbb11173a08c3cf381d0364736f6c63430008000033",
  "immutableReferences": {},
  "source": "// SPDX-License-Identifier: MIT\r\npragma solidity ^0.8.0;\r\n\r\ncontract Auth {\r\n    struct User {\r\n        string email;\r\n        string phone;\r\n        string emergencyContact;\r\n        string emergencyEmail;\r\n        bool isDriver;\r\n        bool exists;\r\n    }\r\n\r\n    mapping(address => User) public users;\r\n    mapping(string => address) public emailToAddress;\r\n\r\n    event UserRegistered(address indexed userAddress, string email);\r\n    event UserLoggedIn(address indexed userAddress);\r\n\r\n    function register(\r\n        string memory _email,\r\n        string memory _phone,\r\n        string memory _emergencyContact,\r\n        string memory _emergencyEmail,\r\n        bool _isDriver\r\n    ) public {\r\n        require(!users[msg.sender].exists, \"User already exists\");\r\n        require(emailToAddress[_email] == address(0), \"Email already registered\");\r\n\r\n        users[msg.sender] = User({\r\n            email: _email,\r\n            phone: _phone,\r\n            emergencyContact: _emergencyContact,\r\n            emergencyEmail: _emergencyEmail,\r\n            isDriver: _isDriver,\r\n            exists: true\r\n        });\r\n\r\n        emailToAddress[_email] = msg.sender;\r\n        emit UserRegistered(msg.sender, _email);\r\n    }\r\n\r\n    function login() public view returns (bool) {\r\n        require(users[msg.sender].exists, \"User does not exist\");\r\n        return true;\r\n    }\r\n\r\n    function getUser(address _userAddress) public view returns (User memory) {\r\n        require(users[_userAddress].exists, \"User does not exist\");\r\n        return users[_userAddress];\r\n    }\r\n} ",
  "sourcePath": "D:\\CommuteCo\\contracts\\Auth.sol",
  "compiler": {
    "name": "solc",
    "version": "0.8.0+commit.c7dfd78e.Emscripten.clang"
  },
  "schemaVersion": "3.4.16",
  "updatedAt": "2025-04-19T12:24:48.564Z",
  "networkType": "ethereum",
  "devdoc": {
    "kind": "dev",
    "methods": {},
    "version": 1
  },
  "userdoc": {
    "kind": "user",
    "methods": {},
    "version": 1
  }
}